{
  "contractName": "RoomContract",
  "abi": [
    {
      "constant": true,
      "inputs": [],
      "name": "name",
      "outputs": [
        {
          "name": "",
          "type": "string"
        }
      ],
      "payable": false,
      "stateMutability": "view",
      "type": "function"
    },
    {
      "constant": true,
      "inputs": [
        {
          "name": "",
          "type": "string"
        }
      ],
      "name": "orderBook",
      "outputs": [
        {
          "name": "",
          "type": "address"
        }
      ],
      "payable": false,
      "stateMutability": "view",
      "type": "function"
    },
    {
      "constant": true,
      "inputs": [
        {
          "name": "",
          "type": "address"
        }
      ],
      "name": "balanceOf",
      "outputs": [
        {
          "name": "",
          "type": "uint256"
        }
      ],
      "payable": false,
      "stateMutability": "view",
      "type": "function"
    },
    {
      "constant": true,
      "inputs": [],
      "name": "symbol",
      "outputs": [
        {
          "name": "",
          "type": "string"
        }
      ],
      "payable": false,
      "stateMutability": "view",
      "type": "function"
    },
    {
      "constant": true,
      "inputs": [
        {
          "name": "",
          "type": "uint256"
        }
      ],
      "name": "roomsNumbers",
      "outputs": [
        {
          "name": "",
          "type": "string"
        }
      ],
      "payable": false,
      "stateMutability": "view",
      "type": "function"
    },
    {
      "inputs": [
        {
          "name": "_hotelName",
          "type": "string"
        },
        {
          "name": "_symbol",
          "type": "string"
        },
        {
          "name": "_roomsNumbers",
          "type": "string[]"
        }
      ],
      "payable": false,
      "stateMutability": "nonpayable",
      "type": "constructor"
    },
    {
      "anonymous": false,
      "inputs": [
        {
          "indexed": true,
          "name": "_from",
          "type": "address"
        },
        {
          "indexed": true,
          "name": "_to",
          "type": "address"
        },
        {
          "indexed": false,
          "name": "_roomNo",
          "type": "string"
        }
      ],
      "name": "Transfer",
      "type": "event"
    },
    {
      "anonymous": false,
      "inputs": [
        {
          "indexed": true,
          "name": "_owner",
          "type": "address"
        },
        {
          "indexed": true,
          "name": "_spender",
          "type": "address"
        },
        {
          "indexed": false,
          "name": "_roomNo",
          "type": "string"
        }
      ],
      "name": "Approval",
      "type": "event"
    },
    {
      "constant": false,
      "inputs": [
        {
          "name": "_to",
          "type": "address"
        },
        {
          "name": "_roomNo",
          "type": "string"
        }
      ],
      "name": "transfer",
      "outputs": [
        {
          "name": "success",
          "type": "bool"
        }
      ],
      "payable": false,
      "stateMutability": "nonpayable",
      "type": "function"
    },
    {
      "constant": false,
      "inputs": [
        {
          "name": "_from",
          "type": "address"
        },
        {
          "name": "_to",
          "type": "address"
        },
        {
          "name": "_roomNo",
          "type": "string"
        }
      ],
      "name": "transferFrom",
      "outputs": [
        {
          "name": "success",
          "type": "bool"
        }
      ],
      "payable": false,
      "stateMutability": "nonpayable",
      "type": "function"
    }
  ],
  "bytecode": "0x60806040523480156200001157600080fd5b506040516200141d3803806200141d8339810180604052620000379190810190620003b2565b33600460006101000a81548173ffffffffffffffffffffffffffffffffffffffff021916908373ffffffffffffffffffffffffffffffffffffffff160217905550826000908051906020019062000090929190620001ce565b508160019080519060200190620000a9929190620001ce565b5060008090505b81518110156200015d57600460009054906101000a900473ffffffffffffffffffffffffffffffffffffffff166002838381518110620000ec57fe5b60200260200101516040516200010391906200048a565b908152602001604051809103902060006101000a81548173ffffffffffffffffffffffffffffffffffffffff021916908373ffffffffffffffffffffffffffffffffffffffff1602179055508080600101915050620000b0565b50805160056000600460009054906101000a900473ffffffffffffffffffffffffffffffffffffffff1673ffffffffffffffffffffffffffffffffffffffff1673ffffffffffffffffffffffffffffffffffffffff16815260200190815260200160002081905550505050620005a0565b828054600181600116156101000203166002900490600052602060002090601f016020900481019282601f106200021157805160ff191683800117855562000242565b8280016001018555821562000242579182015b828111156200024157825182559160200191906001019062000224565b5b50905062000251919062000255565b5090565b6200027a91905b80821115620002765760008160009055506001016200025c565b5090565b90565b600082601f8301126200028f57600080fd5b8151620002a6620002a082620004d1565b620004a3565b9150818183526020840193506020810190508360005b83811015620002f05781518601620002d58882620002fa565b845260208401935060208301925050600181019050620002bc565b5050505092915050565b600082601f8301126200030c57600080fd5b8151620003236200031d82620004fa565b620004a3565b915080825260208301602083018583830111156200034057600080fd5b6200034d8382846200056a565b50505092915050565b600082601f8301126200036857600080fd5b81516200037f620003798262000527565b620004a3565b915080825260208301602083018583830111156200039c57600080fd5b620003a98382846200056a565b50505092915050565b600080600060608486031215620003c857600080fd5b600084015167ffffffffffffffff811115620003e357600080fd5b620003f18682870162000356565b935050602084015167ffffffffffffffff8111156200040f57600080fd5b6200041d8682870162000356565b925050604084015167ffffffffffffffff8111156200043b57600080fd5b62000449868287016200027d565b9150509250925092565b6000620004608262000554565b6200046c81856200055f565b93506200047e8185602086016200056a565b80840191505092915050565b600062000498828462000453565b915081905092915050565b6000604051905081810181811067ffffffffffffffff82111715620004c757600080fd5b8060405250919050565b600067ffffffffffffffff821115620004e957600080fd5b602082029050602081019050919050565b600067ffffffffffffffff8211156200051257600080fd5b601f19601f8301169050602081019050919050565b600067ffffffffffffffff8211156200053f57600080fd5b601f19601f8301169050602081019050919050565b600081519050919050565b600081905092915050565b60005b838110156200058a5780820151818401526020810190506200056d565b838111156200059a576000848401525b50505050565b610e6d80620005b06000396000f3fe608060405234801561001057600080fd5b506004361061007d5760003560e01c80634c5969041161005b5780634c5969041461010057806370a082311461013057806395d89b4114610160578063d5a5ea221461017e5761007d565b806306fdde031461008257806309886649146100a05780633ebfc934146100d0575b600080fd5b61008a6101ae565b6040516100979190610c14565b60405180910390f35b6100ba60048036036100b59190810190610993565b61024c565b6040516100c79190610bf9565b60405180910390f35b6100ea60048036036100e5919081019061092c565b610462565b6040516100f79190610bf9565b60405180910390f35b61011a600480360361011591908101906109e7565b610679565b6040516101279190610bde565b60405180910390f35b61014a60048036036101459190810190610903565b6106c2565b6040516101579190610c98565b60405180910390f35b6101686106da565b6040516101759190610c14565b60405180910390f35b61019860048036036101939190810190610a28565b610778565b6040516101a59190610c14565b60405180910390f35b60008054600181600116156101000203166002900480601f0160208091040260200160405190810160405280929190818152602001828054600181600116156101000203166002900480156102445780601f1061021957610100808354040283529160200191610244565b820191906000526020600020905b81548152906001019060200180831161022757829003601f168201915b505050505081565b60003373ffffffffffffffffffffffffffffffffffffffff166002836040516102759190610bc7565b908152602001604051809103902060009054906101000a900473ffffffffffffffffffffffffffffffffffffffff1673ffffffffffffffffffffffffffffffffffffffff16146102fa576040517f08c379a00000000000000000000000000000000000000000000000000000000081526004016102f190610c58565b60405180910390fd5b8260028360405161030b9190610bc7565b908152602001604051809103902060006101000a81548173ffffffffffffffffffffffffffffffffffffffff021916908373ffffffffffffffffffffffffffffffffffffffff1602179055506001600560003373ffffffffffffffffffffffffffffffffffffffff1673ffffffffffffffffffffffffffffffffffffffff168152602001908152602001600020600082825403925050819055506001600560008573ffffffffffffffffffffffffffffffffffffffff1673ffffffffffffffffffffffffffffffffffffffff168152602001908152602001600020600082825401925050819055508273ffffffffffffffffffffffffffffffffffffffff163373ffffffffffffffffffffffffffffffffffffffff167f55e10366a5f552746106978b694d7ef3bbddec06bd5f9b9d15ad46f475c653ef846040516104509190610c36565b60405180910390a36001905092915050565b60008373ffffffffffffffffffffffffffffffffffffffff1660028360405161048b9190610bc7565b908152602001604051809103902060009054906101000a900473ffffffffffffffffffffffffffffffffffffffff1673ffffffffffffffffffffffffffffffffffffffff1614610510576040517f08c379a000000000000000000000000000000000000000000000000000000000815260040161050790610c78565b60405180910390fd5b6001600560008673ffffffffffffffffffffffffffffffffffffffff1673ffffffffffffffffffffffffffffffffffffffff168152602001908152602001600020600082825403925050819055506001600560008573ffffffffffffffffffffffffffffffffffffffff1673ffffffffffffffffffffffffffffffffffffffff16815260200190815260200160002060008282540192505081905550826002836040516105bd9190610bc7565b908152602001604051809103902060006101000a81548173ffffffffffffffffffffffffffffffffffffffff021916908373ffffffffffffffffffffffffffffffffffffffff1602179055508273ffffffffffffffffffffffffffffffffffffffff168473ffffffffffffffffffffffffffffffffffffffff167f55e10366a5f552746106978b694d7ef3bbddec06bd5f9b9d15ad46f475c653ef846040516106669190610c36565b60405180910390a3600190509392505050565b6002818051602081018201805184825260208301602085012081835280955050505050506000915054906101000a900473ffffffffffffffffffffffffffffffffffffffff1681565b60056020528060005260406000206000915090505481565b60018054600181600116156101000203166002900480601f0160208091040260200160405190810160405280929190818152602001828054600181600116156101000203166002900480156107705780601f1061074557610100808354040283529160200191610770565b820191906000526020600020905b81548152906001019060200180831161075357829003601f168201915b505050505081565b6003818154811061078557fe5b906000526020600020016000915090508054600181600116156101000203166002900480601f0160208091040260200160405190810160405280929190818152602001828054600181600116156101000203166002900480156108295780601f106107fe57610100808354040283529160200191610829565b820191906000526020600020905b81548152906001019060200180831161080c57829003601f168201915b505050505081565b60008135905061084081610e05565b92915050565b600082601f83011261085757600080fd5b813561086a61086582610ce0565b610cb3565b9150808252602083016020830185838301111561088657600080fd5b610891838284610db2565b50505092915050565b600082601f8301126108ab57600080fd5b81356108be6108b982610d0c565b610cb3565b915080825260208301602083018583830111156108da57600080fd5b6108e5838284610db2565b50505092915050565b6000813590506108fd81610e1c565b92915050565b60006020828403121561091557600080fd5b600061092384828501610831565b91505092915050565b60008060006060848603121561094157600080fd5b600061094f86828701610831565b935050602061096086828701610831565b925050604084013567ffffffffffffffff81111561097d57600080fd5b6109898682870161089a565b9150509250925092565b600080604083850312156109a657600080fd5b60006109b485828601610831565b925050602083013567ffffffffffffffff8111156109d157600080fd5b6109dd8582860161089a565b9150509250929050565b6000602082840312156109f957600080fd5b600082013567ffffffffffffffff811115610a1357600080fd5b610a1f84828501610846565b91505092915050565b600060208284031215610a3a57600080fd5b6000610a48848285016108ee565b91505092915050565b610a5a81610d6a565b82525050565b610a6981610d7c565b82525050565b6000610a7a82610d43565b610a848185610d4e565b9350610a94818560208601610dc1565b610a9d81610df4565b840191505092915050565b6000610ab382610d43565b610abd8185610d5f565b9350610acd818560208601610dc1565b80840191505092915050565b6000610ae482610d38565b610aee8185610d4e565b9350610afe818560208601610dc1565b610b0781610df4565b840191505092915050565b6000610b1f601783610d4e565b91507f726f6f6d20616c726561647920616c6c6f6361746564200000000000000000006000830152602082019050919050565b6000610b5f602283610d4e565b91507f726f6f6d206973206e6f7420616c6c6f6361746564206f6e20796f7572206e6160008301527f6d650000000000000000000000000000000000000000000000000000000000006020830152604082019050919050565b610bc181610da8565b82525050565b6000610bd38284610aa8565b915081905092915050565b6000602082019050610bf36000830184610a51565b92915050565b6000602082019050610c0e6000830184610a60565b92915050565b60006020820190508181036000830152610c2e8184610ad9565b905092915050565b60006020820190508181036000830152610c508184610a6f565b905092915050565b60006020820190508181036000830152610c7181610b12565b9050919050565b60006020820190508181036000830152610c9181610b52565b9050919050565b6000602082019050610cad6000830184610bb8565b92915050565b6000604051905081810181811067ffffffffffffffff82111715610cd657600080fd5b8060405250919050565b600067ffffffffffffffff821115610cf757600080fd5b601f19601f8301169050602081019050919050565b600067ffffffffffffffff821115610d2357600080fd5b601f19601f8301169050602081019050919050565b600081519050919050565b600081519050919050565b600082825260208201905092915050565b600081905092915050565b6000610d7582610d88565b9050919050565b60008115159050919050565b600073ffffffffffffffffffffffffffffffffffffffff82169050919050565b6000819050919050565b82818337600083830152505050565b60005b83811015610ddf578082015181840152602081019050610dc4565b83811115610dee576000848401525b50505050565b6000601f19601f8301169050919050565b610e0e81610d6a565b8114610e1957600080fd5b50565b610e2581610da8565b8114610e3057600080fd5b5056fea265627a7a72305820822f9e82d5eb148b07f81b5d70e708af07471bbabd847851180e0dd2af72f84d6c6578706572696d656e74616cf50037",
  "source": "pragma solidity ^0.5.0;\npragma experimental ABIEncoderV2;\n\ncontract RoomContract {\n    string  public name;\n    string  public symbol;\n    mapping(string => address) public orderBook; // HashMap \n    string[] public roomsNumbers; \n    address admin;\n\n    mapping(address => uint256) public balanceOf;\n    // mapping(address => string[]) public allocatedRooms;\n\n    // mapping(address => mapping(address => string[])) public allowance;\n\n\n  constructor(string memory _hotelName, string memory _symbol,string[] memory _roomsNumbers) public {\n    admin = msg.sender;\n    name = _hotelName;\n    symbol = _symbol;\n    for(uint256 i=0;i< _roomsNumbers.length;i++) {\n      // orderBook[_roomsNumbers[i]] = address(0x0);\n      //roomsNumbers[i] = _roomsNumbers[i];\n      orderBook[_roomsNumbers[i]] = admin;\n    }\n    balanceOf[admin] = _roomsNumbers.length;\n\n  }\n  event Transfer(\n        address indexed _from,\n        address indexed _to,\n        string _roomNo\n    );\n  event Approval(\n        address indexed _owner,\n        address indexed _spender,\n        string _roomNo\n    );\n\n\n  function transfer(address _to, string memory _roomNo) public returns (bool success) {\n\n    require(orderBook[_roomNo] == msg.sender,'room already allocated ');\n    orderBook[_roomNo] = _to; // ['101'] -> '0xcccbc'\n\n    balanceOf[msg.sender] -= 1;\n    balanceOf[_to] +=1;\n    // allocatedRooms[_to].push(_roomNo);\n    emit Transfer(msg.sender, _to, _roomNo);\n    return true;\n  }\n\n  // function approve(address _spender, string memory _roomNo) public returns (bool success) {\n  //       allowance[msg.sender][_spender] = _roomNo;\n\n  //       emit Approval(msg.sender, _spender, _roomNo);\n\n  //       return true;\n  // }\n\n  function transferFrom(address _from, address _to, string memory _roomNo) public returns (bool success) {\n        require(orderBook[_roomNo] == _from, 'room is not allocated on your name');\n        // require(allowance[_from][msg.sender] == _roomNo, 'Room is not allocated on your name');\n\n        balanceOf[_from] -= 1;\n        balanceOf[_to] += 1;\n\n        orderBook[_roomNo] = _to;\n        // allowance[_from][msg.sender] = '';\n\n        emit Transfer(_from, _to, _roomNo);\n\n        return true;\n    }\n}",
  "sourcePath": "/Users/heeropunjabi/cosfinex/hotel-tokens/contracts/RoomContract.sol",
  "compiler": {
    "name": "solc",
    "version": "0.5.8+commit.23d335f2.Emscripten.clang"
  },
  "schemaVersion": "3.0.11",
  "updatedAt": "2019-08-11T13:53:52.522Z",
  "devdoc": {
    "methods": {}
  },
  "userdoc": {
    "methods": {}
  }
}