{
  "contractName": "RoomContract",
  "abi": [
    {
      "constant": true,
      "inputs": [],
      "name": "name",
      "outputs": [
        {
          "name": "",
          "type": "string"
        }
      ],
      "payable": false,
      "stateMutability": "view",
      "type": "function"
    },
    {
      "constant": true,
      "inputs": [
        {
          "name": "",
          "type": "string"
        }
      ],
      "name": "orderBook",
      "outputs": [
        {
          "name": "",
          "type": "address"
        }
      ],
      "payable": false,
      "stateMutability": "view",
      "type": "function"
    },
    {
      "constant": true,
      "inputs": [
        {
          "name": "",
          "type": "address"
        }
      ],
      "name": "balanceOf",
      "outputs": [
        {
          "name": "",
          "type": "uint256"
        }
      ],
      "payable": false,
      "stateMutability": "view",
      "type": "function"
    },
    {
      "constant": true,
      "inputs": [],
      "name": "symbol",
      "outputs": [
        {
          "name": "",
          "type": "string"
        }
      ],
      "payable": false,
      "stateMutability": "view",
      "type": "function"
    },
    {
      "constant": true,
      "inputs": [
        {
          "name": "",
          "type": "uint256"
        }
      ],
      "name": "roomsNumbers",
      "outputs": [
        {
          "name": "",
          "type": "string"
        }
      ],
      "payable": false,
      "stateMutability": "view",
      "type": "function"
    },
    {
      "inputs": [
        {
          "name": "_roomsNumbers",
          "type": "string[]"
        }
      ],
      "payable": false,
      "stateMutability": "nonpayable",
      "type": "constructor"
    },
    {
      "anonymous": false,
      "inputs": [
        {
          "indexed": true,
          "name": "_from",
          "type": "address"
        },
        {
          "indexed": true,
          "name": "_to",
          "type": "address"
        },
        {
          "indexed": false,
          "name": "_roomNo",
          "type": "string"
        }
      ],
      "name": "Transfer",
      "type": "event"
    },
    {
      "anonymous": false,
      "inputs": [
        {
          "indexed": true,
          "name": "_owner",
          "type": "address"
        },
        {
          "indexed": true,
          "name": "_spender",
          "type": "address"
        },
        {
          "indexed": false,
          "name": "_roomNo",
          "type": "string"
        }
      ],
      "name": "Approval",
      "type": "event"
    },
    {
      "constant": false,
      "inputs": [
        {
          "name": "_to",
          "type": "address"
        },
        {
          "name": "_roomNo",
          "type": "string"
        }
      ],
      "name": "transfer",
      "outputs": [
        {
          "name": "success",
          "type": "bool"
        }
      ],
      "payable": false,
      "stateMutability": "nonpayable",
      "type": "function"
    },
    {
      "constant": false,
      "inputs": [
        {
          "name": "_from",
          "type": "address"
        },
        {
          "name": "_to",
          "type": "address"
        },
        {
          "name": "_roomNo",
          "type": "string"
        }
      ],
      "name": "transferFrom",
      "outputs": [
        {
          "name": "success",
          "type": "bool"
        }
      ],
      "payable": false,
      "stateMutability": "nonpayable",
      "type": "function"
    }
  ],
  "bytecode": "0x60806040526040518060400160405280600c81526020017f4a2e572e204d417272696f740000000000000000000000000000000000000000815250600090805190602001906200005192919062000236565b506040518060400160405280600381526020017f4a574d0000000000000000000000000000000000000000000000000000000000815250600190805190602001906200009f92919062000236565b50348015620000ad57600080fd5b50604051620013c2380380620013c28339810180604052620000d39190810190620003be565b33600460006101000a81548173ffffffffffffffffffffffffffffffffffffffff021916908373ffffffffffffffffffffffffffffffffffffffff16021790555060008090505b8151811015620001c757600460009054906101000a900473ffffffffffffffffffffffffffffffffffffffff1660028383815181106200015657fe5b60200260200101516040516200016d91906200043a565b908152602001604051809103902060006101000a81548173ffffffffffffffffffffffffffffffffffffffff021916908373ffffffffffffffffffffffffffffffffffffffff16021790555080806001019150506200011a565b50805160056000600460009054906101000a900473ffffffffffffffffffffffffffffffffffffffff1673ffffffffffffffffffffffffffffffffffffffff1673ffffffffffffffffffffffffffffffffffffffff168152602001908152602001600020819055505062000523565b828054600181600116156101000203166002900490600052602060002090601f016020900481019282601f106200027957805160ff1916838001178555620002aa565b82800160010185558215620002aa579182015b82811115620002a95782518255916020019190600101906200028c565b5b509050620002b99190620002bd565b5090565b620002e291905b80821115620002de576000816000905550600101620002c4565b5090565b90565b600082601f830112620002f757600080fd5b81516200030e620003088262000481565b62000453565b9150818183526020840193506020810190508360005b838110156200035857815186016200033d888262000362565b84526020840193506020830192505060018101905062000324565b5050505092915050565b600082601f8301126200037457600080fd5b81516200038b6200038582620004aa565b62000453565b91508082526020830160208301858383011115620003a857600080fd5b620003b5838284620004ed565b50505092915050565b600060208284031215620003d157600080fd5b600082015167ffffffffffffffff811115620003ec57600080fd5b620003fa84828501620002e5565b91505092915050565b60006200041082620004d7565b6200041c8185620004e2565b93506200042e818560208601620004ed565b80840191505092915050565b600062000448828462000403565b915081905092915050565b6000604051905081810181811067ffffffffffffffff821117156200047757600080fd5b8060405250919050565b600067ffffffffffffffff8211156200049957600080fd5b602082029050602081019050919050565b600067ffffffffffffffff821115620004c257600080fd5b601f19601f8301169050602081019050919050565b600081519050919050565b600081905092915050565b60005b838110156200050d578082015181840152602081019050620004f0565b838111156200051d576000848401525b50505050565b610e8f80620005336000396000f3fe608060405234801561001057600080fd5b506004361061007d5760003560e01c80634c5969041161005b5780634c5969041461010057806370a082311461013057806395d89b4114610160578063d5a5ea221461017e5761007d565b806306fdde031461008257806309886649146100a05780633ebfc934146100d0575b600080fd5b61008a6101ae565b6040516100979190610c36565b60405180910390f35b6100ba60048036036100b591908101906109b5565b61024c565b6040516100c79190610c1b565b60405180910390f35b6100ea60048036036100e5919081019061094e565b610484565b6040516100f79190610c1b565b60405180910390f35b61011a60048036036101159190810190610a09565b61069b565b6040516101279190610c00565b60405180910390f35b61014a60048036036101459190810190610925565b6106e4565b6040516101579190610cba565b60405180910390f35b6101686106fc565b6040516101759190610c36565b60405180910390f35b61019860048036036101939190810190610a4a565b61079a565b6040516101a59190610c36565b60405180910390f35b60008054600181600116156101000203166002900480601f0160208091040260200160405190810160405280929190818152602001828054600181600116156101000203166002900480156102445780601f1061021957610100808354040283529160200191610244565b820191906000526020600020905b81548152906001019060200180831161022757829003601f168201915b505050505081565b6000600460009054906101000a900473ffffffffffffffffffffffffffffffffffffffff1673ffffffffffffffffffffffffffffffffffffffff166002836040516102979190610be9565b908152602001604051809103902060009054906101000a900473ffffffffffffffffffffffffffffffffffffffff1673ffffffffffffffffffffffffffffffffffffffff161461031c576040517f08c379a000000000000000000000000000000000000000000000000000000000815260040161031390610c7a565b60405180910390fd5b8260028360405161032d9190610be9565b908152602001604051809103902060006101000a81548173ffffffffffffffffffffffffffffffffffffffff021916908373ffffffffffffffffffffffffffffffffffffffff1602179055506001600560003373ffffffffffffffffffffffffffffffffffffffff1673ffffffffffffffffffffffffffffffffffffffff168152602001908152602001600020600082825403925050819055506001600560008573ffffffffffffffffffffffffffffffffffffffff1673ffffffffffffffffffffffffffffffffffffffff168152602001908152602001600020600082825401925050819055508273ffffffffffffffffffffffffffffffffffffffff163373ffffffffffffffffffffffffffffffffffffffff167f55e10366a5f552746106978b694d7ef3bbddec06bd5f9b9d15ad46f475c653ef846040516104729190610c58565b60405180910390a36001905092915050565b60008373ffffffffffffffffffffffffffffffffffffffff166002836040516104ad9190610be9565b908152602001604051809103902060009054906101000a900473ffffffffffffffffffffffffffffffffffffffff1673ffffffffffffffffffffffffffffffffffffffff1614610532576040517f08c379a000000000000000000000000000000000000000000000000000000000815260040161052990610c9a565b60405180910390fd5b6001600560008673ffffffffffffffffffffffffffffffffffffffff1673ffffffffffffffffffffffffffffffffffffffff168152602001908152602001600020600082825403925050819055506001600560008573ffffffffffffffffffffffffffffffffffffffff1673ffffffffffffffffffffffffffffffffffffffff16815260200190815260200160002060008282540192505081905550826002836040516105df9190610be9565b908152602001604051809103902060006101000a81548173ffffffffffffffffffffffffffffffffffffffff021916908373ffffffffffffffffffffffffffffffffffffffff1602179055508273ffffffffffffffffffffffffffffffffffffffff168473ffffffffffffffffffffffffffffffffffffffff167f55e10366a5f552746106978b694d7ef3bbddec06bd5f9b9d15ad46f475c653ef846040516106889190610c58565b60405180910390a3600190509392505050565b6002818051602081018201805184825260208301602085012081835280955050505050506000915054906101000a900473ffffffffffffffffffffffffffffffffffffffff1681565b60056020528060005260406000206000915090505481565b60018054600181600116156101000203166002900480601f0160208091040260200160405190810160405280929190818152602001828054600181600116156101000203166002900480156107925780601f1061076757610100808354040283529160200191610792565b820191906000526020600020905b81548152906001019060200180831161077557829003601f168201915b505050505081565b600381815481106107a757fe5b906000526020600020016000915090508054600181600116156101000203166002900480601f01602080910402602001604051908101604052809291908181526020018280546001816001161561010002031660029004801561084b5780601f106108205761010080835404028352916020019161084b565b820191906000526020600020905b81548152906001019060200180831161082e57829003601f168201915b505050505081565b60008135905061086281610e27565b92915050565b600082601f83011261087957600080fd5b813561088c61088782610d02565b610cd5565b915080825260208301602083018583830111156108a857600080fd5b6108b3838284610dd4565b50505092915050565b600082601f8301126108cd57600080fd5b81356108e06108db82610d2e565b610cd5565b915080825260208301602083018583830111156108fc57600080fd5b610907838284610dd4565b50505092915050565b60008135905061091f81610e3e565b92915050565b60006020828403121561093757600080fd5b600061094584828501610853565b91505092915050565b60008060006060848603121561096357600080fd5b600061097186828701610853565b935050602061098286828701610853565b925050604084013567ffffffffffffffff81111561099f57600080fd5b6109ab868287016108bc565b9150509250925092565b600080604083850312156109c857600080fd5b60006109d685828601610853565b925050602083013567ffffffffffffffff8111156109f357600080fd5b6109ff858286016108bc565b9150509250929050565b600060208284031215610a1b57600080fd5b600082013567ffffffffffffffff811115610a3557600080fd5b610a4184828501610868565b91505092915050565b600060208284031215610a5c57600080fd5b6000610a6a84828501610910565b91505092915050565b610a7c81610d8c565b82525050565b610a8b81610d9e565b82525050565b6000610a9c82610d65565b610aa68185610d70565b9350610ab6818560208601610de3565b610abf81610e16565b840191505092915050565b6000610ad582610d65565b610adf8185610d81565b9350610aef818560208601610de3565b80840191505092915050565b6000610b0682610d5a565b610b108185610d70565b9350610b20818560208601610de3565b610b2981610e16565b840191505092915050565b6000610b41601783610d70565b91507f726f6f6d20616c726561647920616c6c6f6361746564200000000000000000006000830152602082019050919050565b6000610b81602283610d70565b91507f726f6f6d206973206e6f7420616c6c6f6361746564206f6e20796f7572206e6160008301527f6d650000000000000000000000000000000000000000000000000000000000006020830152604082019050919050565b610be381610dca565b82525050565b6000610bf58284610aca565b915081905092915050565b6000602082019050610c156000830184610a73565b92915050565b6000602082019050610c306000830184610a82565b92915050565b60006020820190508181036000830152610c508184610afb565b905092915050565b60006020820190508181036000830152610c728184610a91565b905092915050565b60006020820190508181036000830152610c9381610b34565b9050919050565b60006020820190508181036000830152610cb381610b74565b9050919050565b6000602082019050610ccf6000830184610bda565b92915050565b6000604051905081810181811067ffffffffffffffff82111715610cf857600080fd5b8060405250919050565b600067ffffffffffffffff821115610d1957600080fd5b601f19601f8301169050602081019050919050565b600067ffffffffffffffff821115610d4557600080fd5b601f19601f8301169050602081019050919050565b600081519050919050565b600081519050919050565b600082825260208201905092915050565b600081905092915050565b6000610d9782610daa565b9050919050565b60008115159050919050565b600073ffffffffffffffffffffffffffffffffffffffff82169050919050565b6000819050919050565b82818337600083830152505050565b60005b83811015610e01578082015181840152602081019050610de6565b83811115610e10576000848401525b50505050565b6000601f19601f8301169050919050565b610e3081610d8c565b8114610e3b57600080fd5b50565b610e4781610dca565b8114610e5257600080fd5b5056fea265627a7a7230582084c836f86509fc6d09a565e81875361a586401a3dfed44e670b1cfe10430dbf36c6578706572696d656e74616cf50037",
  "source": "pragma solidity ^0.5.0;\npragma experimental ABIEncoderV2;\n\ncontract RoomContract {\n    string  public name = \"J.W. MArriot\";\n    string  public symbol = \"JWM\";\n    mapping(string => address) public orderBook; // HashMap \n    string[] public roomsNumbers; \n    address admin;\n\n    mapping(address => uint256) public balanceOf;\n    // mapping(address => string[]) public allocatedRooms;\n\n    // mapping(address => mapping(address => string[])) public allowance;\n\n\n  constructor(string[] memory _roomsNumbers) public {\n    admin = msg.sender;\n    for(uint256 i=0;i< _roomsNumbers.length;i++) {\n      // orderBook[_roomsNumbers[i]] = address(0x0);\n      orderBook[_roomsNumbers[i]] = admin;\n    }\n    balanceOf[admin] = _roomsNumbers.length;\n\n  }\n  event Transfer(\n        address indexed _from,\n        address indexed _to,\n        string _roomNo\n    );\n  event Approval(\n        address indexed _owner,\n        address indexed _spender,\n        string _roomNo\n    );\n\n\n  function transfer(address _to, string memory _roomNo) public returns (bool success) {\n\n    require(orderBook[_roomNo] == admin,'room already allocated ');\n    orderBook[_roomNo] = _to; // ['101'] -> '0xcccbc'\n\n    balanceOf[msg.sender] -= 1;\n    balanceOf[_to] +=1;\n    // allocatedRooms[_to].push(_roomNo);\n    emit Transfer(msg.sender, _to, _roomNo);\n    return true;\n  }\n\n  // function approve(address _spender, string memory _roomNo) public returns (bool success) {\n  //       allowance[msg.sender][_spender] = _roomNo;\n\n  //       emit Approval(msg.sender, _spender, _roomNo);\n\n  //       return true;\n  // }\n\n  function transferFrom(address _from, address _to, string memory _roomNo) public returns (bool success) {\n        require(orderBook[_roomNo] == _from, 'room is not allocated on your name');\n        // require(allowance[_from][msg.sender] == _roomNo, 'Room is not allocated on your name');\n\n        balanceOf[_from] -= 1;\n        balanceOf[_to] += 1;\n\n        orderBook[_roomNo] = _to;\n        // allowance[_from][msg.sender] = '';\n\n        emit Transfer(_from, _to, _roomNo);\n\n        return true;\n    }\n}",
  "sourcePath": "/Users/vijay/work/hotel-tokens/contracts/RoomContract.sol",
  "compiler": {
    "name": "solc",
    "version": "0.5.8+commit.23d335f2.Emscripten.clang"
  },
  "schemaVersion": "3.0.11",
  "updatedAt": "2019-08-09T05:38:59.672Z",
  "devdoc": {
    "methods": {}
  },
  "userdoc": {
    "methods": {}
  }
}